:100000008A11FD2F00308A000408840A8207003418
:100010004D3469346E3468342034563475340034C9
:1009FA008312031387140630F1003030F000F00B35
:100A0A00042DF10B042D0000831203138710080034
:100A1A00F0007008831203178D00831603178C13D6
:100A2A000C140C18192D1A2D162D831203170C08E5
:100A3A00F10071080800F300831203130714730806
:100A4A008A11EC258A118A11FD248A1173088A11E8
:100A5A00AA258A118A11FD248A110D30F200F20B9F
:100A6A00342D0800F7007703031D3C2D3D2D402D42
:100A7A008030F600482D02307706031D452D462D9D
:100A8A00482DC030F6007508FF3EFF007F08F607C4
:100A9A0076088A1152258A110800F400831203137A
:100AAA00071074088A11EC258A118A11FD248A110B
:100ABA0074088A11AA258A118A11FD248A11033021
:100ACA00F3009730F200F20B682DF30B682D6D2DB1
:100ADA000800F400F5017E2D7508740784008A1158
:100AEA0002208A118A1120258A110130FF007F080D
:100AFA00F5077508740784008A1102208A11003AE2
:100B0A00031D882D892D712D0800F10000308B1BE3
:100B1A000130F2007108831203178D0070088C00EF
:100B2A00831603178C130C158B1355308D00AA30BE
:100B3A008D008C148C18A22DA32D9F2D720C031CD2
:100B4A008B1303188B170C110800F1007108F000C1
:100B5A0003300310F00CFF3E031DAE2D7018B62DA6
:100B6A00BA2D831203138717BD2D8312031387131C
:100B7A007108F00002300310F00CFF3E031DC02D77
:100B8A007018C82DCC2D831203130717CF2D83128B
:100B9A00031307137108F00001300310F00CFF3E35
:100BAA00031DD22D7018DA2DDE2D8312031387163A
:100BBA00E12D8312031387127118E42DE82D831295
:100BCA0003130716EB2D8312031307120800F10013
:100BDA007108F00007300310F00CFF3E031DF02DE2
:100BEA007018F82DFC2D831203138717FF2D83121B
:100BFA00031387137108F00006300310F00CFF3E50
:100C0A00031D022E70180A2E0E2E831203130717C5
:100C1A00112E8312031307137108F0000530031015
:100C2A00F00CFF3E031D142E70181C2E202E83126A
:100C3A0003138716232E8312031387127108F000F9
:100C4A0004300310F00CFF3E031D262E70182E2EC2
:100C5A00322E831203130716352E8312031307123B
:100C6A00080083120313071087101A30F600F830B1
:100C7A00F500F50B3E2EF60B3E2E000030308A11A1
:100C8A00EC258A118A11FD248A110730F6007D307D
:100C9A00F500F50B4E2EF60B4E2E30308A11EC2550
:100CAA008A118A11FD248A113130F500F50B5B2E69
:100CBA005E2E30308A11EC258A118A11FD248A11A0
:100CCA0020308A11EC258A118A11FD248A11C73035
:100CDA00F5006F2EF50B6E2E722E732E28308A11A8
:100CEA0052258A110C308A1152258A1101308A1133
:100CFA0052258A1106308A1152258A110800730872
:100D0A0072047104700403198B2E8C2ECF2EF901F4
:100D1A00F90A9C2E0130F8000310F00DF10DF20DC6
:100D2A00F30DF80B912E0130FF007F08F907F31F2E
:100D3A009F2EA02E8F2E73087702031DAE2E7208E7
:100D4A007602031DAE2E71087502031DAE2E7008C1
:100D5A007402031CB12EB22EC02E7008F402710860
:100D6A00031C710FF5027208031C720FF602730856
:100D7A00031C730FF70201300310F30CF20CF10C91
:100D8A00F00CFF3E031DC12E0130F902031DCE2EC9
:100D9A00CF2EA02E7708F3007608F2007508F1002E
:100DAA007408F00008008316031788018901831666
:100DBA00031387018A1136268A1101308A116E259A
:100DCA008A11C830F00000308A118A258A11003051
:100DDA008A110D258A1183120313B600F501F50A4B
:100DEA0002308A1137258A11831203133608B2009A
:100DFA00B301B401B5013508A3003408A2003308D1
:100E0A00A1003208A0008A1196278A1183120313BF
:100E1A000715023083120313B4000430B300BA304A
:100E2A00B200B20B162FB30B162FB40B162F831268
:100E3A0003130711023083120313B4000430B30002
:100E4A00BA30B200B20B272FB30B272FB40B272FC0
:100E5A000B2F8A1100280030FC000030FB00003004
:100E6A00FA000030F900730872047104700403195F
:100E7A003F2F402F8D2FFD01FD0A502F0130F80022
:100E8A000310F00DF10DF20DF30DF80B452F0130A3
:100E9A00FF007F08FD07F31F532F542F432F013004
:100EAA00F8000310F90DFA0DFB0DFC0DF80B562F87
:100EBA0073087702031D6B2F72087602031D6B2FCE
:100ECA0071087502031D6B2F70087402031C6E2FC4
:100EDA006F2F7E2F7008F4027108031C710FF50240
:100EEA007208031C720FF6027308031C730FF702D1
:100EFA00791401300310F30CF20CF10CF00CFF3EE4
:100F0A00031D7F2F0130FD02031D8C2F8D2F542FBF
:100F1A007C08F3007B08F2007A08F1007908F000F7
:100F2A00080083120313B101D62F3108263E84002C
:100F3A000030F3000030F2000030F1000A30F00017
:100F4A002308F7002208F6002108F5002008F4001B
:100F5A008A1184268A117008831380000030F300F6
:100F6A000030F2000030F1000A30F000831203135F
:100F7A002308F7002208F6002108F5002008F400EB
:100F8A008A1130278A11730883120313A300720887
:100F9A00A2007108A1007008A0000130FF007F08BC
:100FAA00B1072308220421042004031DDD2FDE2FAC
:100FBA009A2FB001F62F2630A4003008A402310877
:100FCA002407A5002508FF3E840083130008303E4D
:100FDA008A1120258A110130FF007F08831203132A
:100FEA00B00731083002031CFB2FFC2FE02F08004A
:060FFA0083018A11D82ECC
:04400E00F420FF3F5C
:00000001FF
