:040000008A110B282E
:10000800FE00030EF0000A08F1008A11902A8A11F6
:100018000D2883120313BA01BB0183018A118529B4
:10002800003083120313A3000030A2000030A100A7
:100038000030A0007508740473047204031925289D
:1000480026287328A401A40A36280130FA000310D0
:10005800F20DF30DF40DF50DFA0B2B280130FF000E
:100068007F08A407F51F39283A2829280130FA0003
:100078000310A00DA10DA20DA30DFA0B3C287508C5
:100088007902031D512874087802031D512873084A
:100098007702031D512872087602031C542855283C
:1000A80064287208F6027308031C730FF7027408B9
:1000B800031C740FF8027508031C750FF90220144D
:1000C80001300310F50CF40CF30CF20CFF3E031D89
:1000D80065280130A402031D722873283A282308D2
:1000E800F5002208F4002108F3002008F2000800B7
:1000F80083120313B601BC2836082B3E8400003057
:10010800F5000030F4000030F3000A30F20028084F
:10011800F9002708F8002608F7002508F6008A11D4
:10012800E3208A117208831380000030F500003044
:10013800F4000030F3000A30F20083120313280899
:10014800F9002708F8002608F7002508F6008A11A4
:1001580014208A11750883120313A8007408A700D5
:100168007308A6007208A5000130FF007F08B607D3
:100178002808270426042504031DC328C42880282A
:10018800B501DC282B30A9003508A9023608290753
:10019800AA002A08FF3E840083130008303E8A1113
:1001A80079228A110130FF007F0883120313B507F3
:1001B80036083502031CE128E228C628080075081D
:1001C8007404730472040319EA28EB282E29FB012E
:1001D800FB0AFB280130FA000310F20DF30DF40DB1
:1001E800F50DFA0BF0280130FF007F08FB07F51F1B
:1001F800FE28FF28EE2875087902031D0D297408CA
:100208007802031D0D2973087702031D0D29720852
:100218007602031C102911291F297208F602730897
:10022800031C730FF7027408031C740FF802750897
:10023800031C750FF90201300310F50CF40CF30CD4
:10024800F20CFF3E031D20290130FB02031D2D295E
:100258002E29FF287908F5007808F4007708F300BC
:100268007608F200080083120313051085101A306F
:10027800F800F830F700F70B3F29F80B3F2900008A
:1002880030308A11D1218A118A11A4228A110730AB
:10029800F8007D30F700F70B4F29F80B4F29303065
:1002A8008A11D1218A118A11A4228A113130F700CA
:1002B800F70B5C295F2930308A11D1218A118A1104
:1002C800A4228A1120308A11D1218A118A11A422EC
:1002D8008A11C730F7007029F70B6F297329742921
:1002E80028308A115D228A110C308A115D228A1108
:1002F80001308A115D228A1106308A115D228A1125
:1003080008008316031385018316031788018312D7
:10031800031390109012101210158E018F011014F3
:100328009711171597101710831603130C150B1731
:100338008B178A1137218A1161308A1179228A1123
:100348008B138A11B4228A11831203133A08A50069
:100358003B08A600A701A8018A117C208A11033056
:1003680083120313B9008A30B8005530B700B70BB1
:10037800BB29B80BBB29B90BBB2900008B178230EE
:1003880083120313B800DD30B700B70BC929B80BC7
:10039800C9290000A4298A110B28F3007308F20068
:1003A80007300310F20CFF3E031DD5297218DD2912
:1003B800E129831203138517E42983120313851394
:1003C8007308F20006300310F20CFF3E031DE72904
:1003D8007218EF29F329831203130517F6298312DC
:1003E800031305137308F20005300310F20CFF3EE7
:1003F800031DF9297218012A052A83120313851689
:10040800082A8312031385127308F20004300310BC
:10041800F20CFF3E031D0B2A7218132A172A8312A7
:10042800031305161A2A8312031305120800F30092
:100438007308F20003300310F20CFF3E031D1F2A5D
:100448007218272A2B2A8312031385172E2A831240
:10045800031385137308F20002300310F20CFF3EF9
:10046800031D312A7218392A3D2A831203130517EE
:10047800402A8312031305137308F2000130031096
:10048800F20CFF3E031D432A72184B2A4F2A83128F
:1004980003138516522A8312031385127318552ADB
:1004A800592A8312031305165C2A831203130512B3
:1004B8000800F60083120313051076088A11D1216B
:1004C8008A118A11A4228A1176088A111B228A119C
:1004D8008A11A4228A110330F5009730F400F40B36
:1004E800732AF50B732A782A0800F5008312031380
:1004F800051475088A11D1218A118A11A4228A113A
:1005080075088A111B228A118A11A4228A110D30BA
:10051800F400F40B8D2A0800831203130C1D952A8E
:10052800962A9D2A1608BB001508BA008E018F016D
:100538000C1171088A00700E8300FE0E7E0E0900F1
:100548008312031385140630F3003030F200F20BE7
:10055800AB2AF30BAB2A00008312031385100800A3
:0A05680001308A115D228A1108009B
:04400E00F420FF3F5C
:00000001FF
