:040000008A11FD2F35
:100F020000308A1188278A11F10071080800F00068
:100F120083160313141070088312031393008316AD
:100F220003131418952F962F902F8312031313086F
:100F3200080083160313850183160317880183169D
:100F42000313871387120716871183120313941151
:100F520014119410141094161412831603131413FC
:100F620094138312031387178230F300DD30F200EB
:100F7200F20BB92FF30BB92FBE2F83120313871372
:100F820003308A1188278A110D30F300FB30F200FA
:100F9200F20BC92FF30BC92FCE2F00308A118827ED
:100FA2008A110D30F300FB30F200F20BD62FF30B57
:100FB200D62FDB2F00308A1188278A110D30F300DB
:100FC200FB30F200F20BE32FF30BE32FE82F8A1131
:100FD20081278A11F4000D30F300FB30F200F20B8E
:100FE200F02FF30BF02FF52F8312031387177408DA
:0E0FF2008500FA2F8A11002883018A119A2F98
:04400E00E423FF3F69
:00000001FF
