:040000008A11FD2F35
:100EF6008316031311141118812F822F7E2F0800D9
:100F06008316031311151119892F8A2F862F0800AE
:100F1600F000831203138C11700893008C1D942F1C
:100F2600952F912F0800831203139416941514110C
:100F360094101410013083160313930087150716B7
:100F46000800F000831203138C1183160313911506
:100F560083128C1DAF2FB02FAB2F83160313911165
:100F6600831203138C11700C83160313031C911246
:100F7600031891161116111AC12FC22FBE2F8312F4
:100F86000313130808008316031386018316031739
:100F960089018A1196278A118A117B278A11403086
:100FA6008A118B278A11AA308A118B278A118A11F6
:100FB60083278A118A117B278A114F308A118B2742
:100FC6008A1101308A11A4278A118312031386001D
:100FD6008A1183278A110330F3000830F200773034
:100FE600F100F10BF42FF20BF42FF30BF42FDD2F9E
:0A0FF6008A11002883018A11C62F1A
:04400E00E423FF3F69
:00000001FF
