:040000008A110B282E
:10000800FE00030EF0000A08F1008A1141288A1147
:100018000D2883018A1110288B170B1683160313DA
:100028000113071087100614831603170912831685
:10003800031381138312031307140230F4000430EE
:10004800F300BA30F200F20B2728F30B2728F40B41
:10005800272800008312031307100230F40004302D
:10006800F300BA30F200F20B3728F30B3728F40B01
:10007800372800001E288A110B288B1C4428452885
:100088004A2802308312031387068B1071088A00EE
:0A009800700E8300FE0E7E0E0900BC
:04400E00E423FF3F69
:00000001FF
