:100000008A11FD2F00308A000408840A8207003418
:100010004D3469346E3468342034563475340034C9
:100AA0008312031387140630F1003030F000F00B8E
:100AB000572DF10B572D00008312031387100800E8
:100AC000F30083120313071473088A1144268A1152
:100AD0008A1150258A1173088A1102268A118A11F7
:100AE00050258A110D30F200F20B742D0800F7002A
:100AF0007703031D7C2D7D2D802D8030F600882D01
:100B000002307706031D852D862D882DC030F60016
:100B10007508FF3EFF007F08F60776088A119225C8
:100B20008A110800F40083120313071074088A1155
:100B300044268A118A1150258A1174088A110226C6
:100B40008A118A1150258A110330F3009730F20080
:100B5000F20BA82DF30BA82DAD2D0800F400F50124
:100B6000BE2D7508740784008A1102208A118A112B
:100B700060258A110130FF007F08F50775087407AA
:100B800084008A1102208A11003A031DC82DC92D44
:100B9000B12D0800831603138116011681158312E7
:100BA000031381018316031387018A118E268A118C
:100BB00001308A11AE258A11831203130108B60091
:100BC000360A031DE42DE52DE72D8101B601F5015F
:100BD000F50A02308A1177258A1183120313360829
:100BE000B200B301B401B5013508A3003408A20076
:100BF0003308A1003208A0008A1196278A11DC2D43
:100C00008A110028F1007108F00003300310F00C85
:100C1000FF3E031D062E70180E2E122E8312031394
:100C20008717152E8312031387137108F000023003
:100C30000310F00CFF3E031D182E7018202E242EDA
:100C4000831203130717272E831203130713710848
:100C5000F00001300310F00CFF3E031D2A2E701827
:100C6000322E362E831203138716392E8312031366
:100C7000871271183C2E402E831203130716432E41
:100C80008312031307120800F1007108F000073007
:100C90000310F00CFF3E031D482E7018502E542EEA
:100CA000831203138717572E8312031387137108B8
:100CB000F00006300310F00CFF3E031D5A2E701892
:100CC000622E662E831203130717692E83120313F5
:100CD00007137108F00005300310F00CFF3E031DF0
:100CE0006C2E7018742E782E8312031387167B2EA9
:100CF0008312031387127108F00004300310F00C04
:100D0000FF3E031D7E2E7018862E8A2E831203133B
:100D100007168D2E83120313071208008312031384
:100D2000071087101A30F600F830F500F50B962EF4
:100D3000F60B962E000030308A1144268A118A1153
:100D400050258A110730F6007D30F500F50BA62EF0
:100D5000F60BA62E30308A1144268A118A115025AE
:100D60008A113130F500F50BB32EB62E30308A11D2
:100D700044268A118A1150258A1120308A1144266E
:100D80008A118A1150258A11C730F500C72EF50B3C
:100D9000C62ECA2ECB2E28308A1192258A110C30ED
:100DA0008A1192258A1101308A1192258A11063002
:100DB0008A1192258A110800730872047104700464
:100DC0000319E32EE42E272FF901F90AF42E01303E
:100DD000F8000310F00DF10DF20DF30DF80BE92EF4
:100DE0000130FF007F08F907F31FF72EF82EE72EDA
:100DF00073087702031D062F72087602031D062F63
:100E000071087502031D062F70087402031C092F58
:100E10000A2F182F7008F4027108031C710FF502D5
:100E20007208031C720FF6027308031C730FF7029B
:100E300001300310F30CF20CF10CF00CFF3E031D1B
:100E4000192F0130F902031D262F272FF82E7708BE
:100E5000F3007608F2007508F1007408F00008004D
:100E60000030FC000030FB000030FA000030F900D8
:100E7000730872047104700403193F2F402F8D2FE3
:100E8000FD01FD0A502F0130F8000310F00DF10DA7
:100E9000F20DF30DF80B452F0130FF007F08FD0721
:100EA000F31F532F542F432F0130F8000310F90D77
:100EB000FA0DFB0DFC0DF80B562F73087702031D7E
:100EC0006B2F72087602031D6B2F71087502031DCC
:100ED0006B2F70087402031C6E2F6F2F7E2F70080B
:100EE000F4027108031C710FF5027208031C720FE3
:100EF000F6027308031C730FF70279140130031014
:100F0000F30CF20CF10CF00CFF3E031D7F2F0130AF
:100F1000FD02031D8C2F8D2F542F7C08F3007B08BE
:100F2000F2007A08F1007908F00008008312031338
:100F3000B101D62F3108263E84000030F300003086
:100F4000F2000030F1000A30F0002308F700220818
:100F5000F6002108F5002008F4008A11DC268A1129
:100F60007008831380000030F3000030F20000307E
:100F7000F1000A30F000831203132308F70022085F
:100F8000F6002108F5002008F4008A1130278A11A4
:100F9000730883120313A3007208A2007108A10052
:100FA0007008A0000130FF007F08B1072308220469
:100FB00021042004031DDD2FDE2F9A2FB001F62F10
:100FC0002630A4003008A40231082407A500250813
:100FD000FF3E840083130008303E8A1160258A1189
:100FE0000130FF007F0883120313B007310830027D
:100FF000031CFB2FFC2FE02F080083018A11CA2D50
:04400E00D420FF3F7C
:00000001FF
