:100000008A11FD2F00308A000408840A8207003418
:100010004D3469346E3468342034563475340034C9
:100A9A008312031387150630F1003030F000F00B93
:100AAA00542DF10B542D00008312031387110800F3
:100ABA00F30083120313071573088A1144268A1157
:100ACA008A114D258A1173088A1102268A118A1100
:100ADA004D258A110D30F200F20B712D0800F70036
:100AEA007703031D792D7A2D7D2D8030F600852D13
:100AFA0002307706031D822D832D852DC030F60026
:100B0A007508FF3EFF007F08F60776088A118F25D1
:100B1A008A110800F40083120313071174088A115A
:100B2A0044268A118A114D258A1174088A110226CF
:100B3A008A118A114D258A110330F3009730F20089
:100B4A00F20BA52DF30BA52DAA2D0800F400F50133
:100B5A00BB2D7508740784008A1102208A118A1134
:100B6A005D258A110130FF007F08F50775087407B3
:100B7A0084008A1102208A11003A031DC52DC62D50
:100B8A00AE2D080083120313901410158E018F01E5
:100B9A0010148316031307118711071287120713FC
:100BAA0087138A118E268A1101308A11AB258A1180
:100BBA00831203130F08B3000E08B200FA3032068C
:100BCA003304031DE92DEA2DEE2DB201B3018E0186
:100BDA008F01F501F50A02308A1174258A118312F0
:100BEA0003133208A0003308A100A201A3018A114D
:100BFA0096278A11DD2D8A110028F1007108F0006C
:100C0A0003300310F00CFF3E031D062E70180E2E43
:100C1A00122E831203138717152E831203138713B9
:100C2A007108F00002300310F00CFF3E031D182E6D
:100C3A007018202E242E831203130717272E8312CF
:100C4A00031307137108F00001300310F00CFF3E84
:100C5A00031D2A2E7018322E362E8312031387167E
:100C6A00392E83120313871271183C2E402E8312D9
:100C7A0003130716432E8312031307120800F10009
:100C8A007108F00007300310F00CFF3E031D482ED8
:100C9A007018502E542E831203138717572E83125F
:100CAA00031387137108F00006300310F00CFF3E9F
:100CBA00031D5A2E7018622E662E8312031307170D
:100CCA00692E8312031307137108F000053003100D
:100CDA00F00CFF3E031D6C2E7018742E782E8312B2
:100CEA00031387167B2E8312031387127108F000F1
:100CFA0004300310F00CFF3E031D7E2E7018862E62
:100D0A008A2E8312031307168D2E831203130712DA
:100D1A00080083120313071187111A30F600F830FE
:100D2A00F500F50B962EF60B962E000030308A1140
:100D3A0044268A118A114D258A110730F6007D3022
:100D4A00F500F50BA62EF60BA62E30308A11442696
:100D5A008A118A114D258A113130F500F50BB32E0F
:100D6A00B62E30308A1144268A118A114D258A11ED
:100D7A0020308A1144268A118A114D258A11C730DA
:100D8A00F500C72EF50BC62ECA2ECB2E28308A1197
:100D9A008F258A110C308A118F258A1101308A1108
:100DAA008F258A1106308A118F258A110800730847
:100DBA007204710470040319E32EE42E272FF9013B
:100DCA00F90AF42E0130F8000310F00DF10DF20DBE
:100DDA00F30DF80BE92E0130FF007F08F907F31F26
:100DEA00F72EF82EE72E73087702031D062F7208D6
:100DFA007602031D062F71087502031D062F70085F
:100E0A007402031C092F0A2F182F7008F4027108A4
:100E1A00031C710FF5027208031C720FF6027308A5
:100E2A00031C730FF70201300310F30CF20CF10CE0
:100E3A00F00CFF3E031D192F0130F902031D262F66
:100E4A00272FF82E7708F3007608F2007508F100CC
:100E5A007408F00008000030FC000030FB0000308D
:100E6A00FA000030F900730872047104700403195F
:100E7A003F2F402F8D2FFD01FD0A502F0130F80022
:100E8A000310F00DF10DF20DF30DF80B452F0130A3
:100E9A00FF007F08FD07F31F532F542F432F013004
:100EAA00F8000310F90DFA0DFB0DFC0DF80B562F87
:100EBA0073087702031D6B2F72087602031D6B2FCE
:100ECA0071087502031D6B2F70087402031C6E2FC4
:100EDA006F2F7E2F7008F4027108031C710FF50240
:100EEA007208031C720FF6027308031C730FF702D1
:100EFA00791401300310F30CF20CF10CF00CFF3EE4
:100F0A00031D7F2F0130FD02031D8C2F8D2F542FBF
:100F1A007C08F3007B08F2007A08F1007908F000F7
:100F2A00080083120313B101D62F3108263E84002C
:100F3A000030F3000030F2000030F1000A30F00017
:100F4A002308F7002208F6002108F5002008F4001B
:100F5A008A11DC268A117008831380000030F3009E
:100F6A000030F2000030F1000A30F000831203135F
:100F7A002308F7002208F6002108F5002008F400EB
:100F8A008A1130278A11730883120313A300720887
:100F9A00A2007108A1007008A0000130FF007F08BC
:100FAA00B1072308220421042004031DDD2FDE2FAC
:100FBA009A2FB001F62F2630A4003008A402310877
:100FCA002407A5002508FF3E840083130008303E4D
:100FDA008A115D258A110130FF007F0883120313ED
:100FEA00B00731083002031CFB2FFC2FE02F08004A
:060FFA0083018A11C72DDE
:04400E00D420FF3F7C
:00000001FF
