:040000008A11FD2F35
:100EDC00F018712F752F831203139716782F831226
:100EEC000313971270187B2F7F2F8312031317167F
:100EFC00822F8312031317127108F3007008F2008B
:100F0C000310F30CF20C0310F30CF20C72089500A6
:100F1C0008008312031397151715971017108316D3
:100F2C00031307117C3092008312031312149210D6
:100F3C0097121716573095001215F701F801BB2FB1
:100F4C007808F1007708F0008A116E278A110130B9
:100F5C00F7070318F80A0030F8070730F5007D3062
:100F6C00F400F40BB72FF50BB72F01307802F430E7
:100F7C0003197702031CC32FC42FA62F0230F600CF
:100F8C000430F500BA30F400F40BCA2FF50BCA2F5D
:100F9C00F60BCA2F0000E72F7808F1007708F00055
:100FAC008A116E278A110130F7020030031CF803F6
:100FBC00F8020730F5007D30F400F40BE32FF50B4D
:100FCC00E32F77087804031DEC2FED2FD22F02307E
:100FDC00F6000430F500BA30F400F40BF32FF50BE7
:100FEC00F32FF60BF32F0000A32F8A110028830197
:040FFC008A118F2F98
:04400E00E423FF3F69
:00000001FF
