:040000008A11FD2F35
:100F7C00F00083160313981CC42FC52FBF2F7008C5
:100F8C008312031399000800831603131815831694
:100F9C000317871183160313181219309900831243
:100FAC0003139817831603139816071787176130C6
:100FBC00F40074088A11BE278A110230F300043041
:100FCC00F200BA30F100F10BE92FF20BE92FF30B21
:100FDC00E92F00000130FF007F08F4077B3074021A
:100FEC00031CF92FFA2FDF2FDD2F8A110028830124
:040FFC008A11CA2F5D
:04400E00E423FF3F69
:00000001FF
