:040000008A11FD2F35
:100F7E0083160317071BC42FC52FBF2F071FC82F9C
:100F8E00C92FC52F831203131A08F000700808002A
:100F9E00831603131815831603178711831603136D
:100FAE001812193099008312031398171816831606
:100FBE0003130717871785018316031788018A11F4
:100FCE00BF278A11F40074088312031385000330BF
:100FDE00F3000830F2007730F100F10BF42FF20B32
:100FEE00F42FF30BF42FE62F8A11002883018A11B8
:020FFE00CF2FF3
:04400E00E423FF3F69
:00000001FF
