:040000008A110B282E
:10000800FE00030EF0000A08F1008A113A288A114E
:100018000D28F50183018A1111288B170B168316F9
:100028000313011307108710061483160317091208
:1000380083160313811375080319232824282628F7
:1000480063001F2801308312031387060230F4006F
:100058000430F300BA30F200F20B3028F30B3028EA
:10006800F40B302800001F288A110B288B1C3D2810
:100078003E28482875080319422843284528F501D1
:100088004728F501F50A8B1071088A00700E830065
:06009800FE0E7E0E0900C1
:04400E00E423FF3F69
:00000001FF
