:100000008A11FD2F00308A000408840A8207003418
:10001000473469346134543472346934203441349F
:1000200044344334203431343034623469347434E9
:100030003A34203400344D3469346E34683420341A
:0600400056347534003453
:100A2C0001308A115D258A11080083120313871483
:100A3C000630F1003030F000F00B222DF10B222D9E
:100A4C0000008312031387100800F30083120313B2
:100A5C00071473088A11D7258A118A111B258A114C
:100A6C0073088A1195258A118A111B258A110D305C
:100A7C00F200F20B3F2D0800F7007703031D472D02
:100A8C00482D4B2D8030F600532D02307706031D78
:100A9C00502D512D532DC030F6007508FF3EFF0030
:100AAC007F08F60776088A115D258A110800F40084
:100ABC0083120313071074088A11D7258A118A111F
:100ACC001B258A1174088A1195258A118A111B25F8
:100ADC008A110330F3009730F200F20B732DF30BF5
:100AEC00732D782D0800F500F401892D7408750715
:100AFC0084008A1102208A118A112B258A11013057
:100B0C00FF007F08F4077408750784008A1102201F
:100B1C008A11003A031D932D942D7C2D0800F100B1
:100B2C007108F00003300310F00CFF3E031D992DEB
:100B3C007018A12DA52D831203138717A82D8312CE
:100B4C00031387137108F00002300310F00CFF3E02
:100B5C00031DAB2D7018B32DB72D8312031307177C
:100B6C00BA2D8312031307137108F0000130031020
:100B7C00F00CFF3E031DBD2D7018C52DC92D831221
:100B8C0003138716CC2D8312031387127118CF2DE4
:100B9C00D32D831203130716D62D831203130712BA
:100BAC000800F1007108F00007300310F00CFF3E54
:100BBC00031DDB2D7018E32DE72D8312031387170C
:100BCC00EA2D8312031387137108F000063003100B
:100BDC00F00CFF3E031DED2D7018F52DF92D831231
:100BEC0003130717FC2D8312031307137108F0006E
:100BFC0005300310F00CFF3E031DFF2D7018072E5F
:100C0C000B2E8312031387160E2E831203138712D7
:100C1C007108F00004300310F00CFF3E031D112E80
:100C2C007018192E1D2E831203130716202E8312F3
:100C3C0003130712080083120313071087101A30CE
:100C4C00F600F830F500F50B292EF60B292E0000D6
:100C5C0030308A11D7258A118A111B258A11073049
:100C6C00F6007D30F500F50B392EF60B392E3030B1
:100C7C008A11D7258A118A111B258A113130F5006A
:100C8C00F50B462E492E30308A11D7258A118A1140
:100C9C001B258A1120308A11D7258A118A111B2510
:100CAC008A11C730F5005A2EF50B592E5D2E5E2E8B
:100CBC0028308A115D258A110C308A115D258A1124
:100CCC0001308A115D258A1106308A115D258A1141
:100CDC00080073087204710470040319762E772EC1
:100CEC00BA2EF901F90A872E0130F8000310F00D25
:100CFC00F10DF20DF30DF80B7C2E0130FF007F0887
:100D0C00F907F31F8A2E8B2E7A2E73087702031D98
:100D1C00992E72087602031D992E71087502031D17
:100D2C00992E70087402031C9C2E9D2EAB2E7008FD
:100D3C00F4027108031C710FF5027208031C720F88
:100D4C00F6027308031C730FF70201300310F30C47
:100D5C00F20CF10CF00CFF3E031DAC2E0130F9022D
:100D6C00031DB92EBA2E8B2E7708F3007608F200ED
:100D7C007508F1007408F00008000030FC00003029
:100D8C00FB000030FA000030F900730872047104A3
:100D9C0070040319D22ED32E202FFD01FD0AE32E51
:100DAC000130F8000310F00DF10DF20DF30DF80BFE
:100DBC00D82E0130FF007F08FD07F31FE62EE72E2B
:100DCC00D62E0130F8000310F90DFA0DFB0DFC0DB9
:100DDC00F80BE92E73087702031DFE2E72087602BB
:100DEC00031DFE2E71087502031DFE2E7008740281
:100DFC00031C012F022F112F7008F4027108031C21
:100E0C00710FF5027208031C720FF6027308031CB3
:100E1C00730FF702791401300310F30CF20CF10C80
:100E2C00F00CFF3E031D122F0130FD02031D1F2F7E
:100E3C00202FE72E7C08F3007B08F2007A08F100E3
:100E4C007908F000080083120313B101692F3108EF
:100E5C00263E84000030F3000030F2000030F10038
:100E6C000A30F0002308F7002208F6002108F500EC
:100E7C002008F4008A116F268A11700883138000F1
:100E8C000030F3000030F2000030F1000A30F000C6
:100E9C00831203132308F7002208F6002108F5003B
:100EAC002008F4008A11C3268A11730883120313D5
:100EBC00A3007208A2007108A1007008A000013004
:100ECC00FF007F08B1072308220421042004031D1E
:100EDC00702F712F2D2FB001892F2630A4003008D0
:100EEC00A40231082407A5002508FF3E84008313C3
:100EFC000008303E8A112B258A110130FF007F0833
:100F0C0083120313B00731083002031C8E2F8F2F6E
:100F1C00732F080083160313870105148316031718
:100F2C000814831203139F121F129F111F11831693
:100F3C0003131F129F129F17831203139F131F1368
:100F4C001F148A1121268A1114308A1179258A11CD
:100F5C00831203139F18B32FB42FB52F9F149F1810
:100F6C00B82FB92FB52F1E08B200B3013208B80044
:100F7C003308B900831603131E0883120313B2003F
:100F8C00B3013808B500B40132083404B600330894
:100F9C003504B7003608B8003708B9008A11162591
:100FAC008A1101308A1179258A110630F500023038
:100FBC008A1142258A11831203133808A0003908BC
:100FCC00A100A201A3018A1129278A1104308312DE
:100FDC000313B4008E30B3001230B200B20BF42FF6
:100FEC00B30BF42FB40BF42FAE2F8A11002883010E
:040FFC008A11902F97
:04400E00F420FF3F5C
:00000001FF
