:040000008A110B282E
:10000800FE00030EF0000A08F1008A1144288A1144
:100018000D2883018A1110288316031307108710EF
:10002800FF30860083160317890183160313811393
:100038000B108B15FF3096008B17831203130714D0
:100048000230F4000430F300BA30F200F20B2A2830
:10005800F30B2A28F40B2A28000083120313071035
:100068000230F4000430F300BA30F200F20B3A2800
:10007800F30B3A28F40B3A28000021288A110B28A0
:100088000B1C47284828522883120313060A031D0D
:100098004E284F284828023087060B1071088A001E
:0A00A800700E8300FE0E7E0E0900AC
:04400E00E423FF3F69
:00000001FF
